{
  "_format": "hh-sol-artifact-1",
  "contractName": "ZKCertify",
  "sourceName": "contracts/ZKCertify.sol",
  "abi": [
    {
      "anonymous": false,
      "inputs": [
        {
          "indexed": true,
          "internalType": "bytes32",
          "name": "studentHash",
          "type": "bytes32"
        },
        {
          "indexed": false,
          "internalType": "bytes32",
          "name": "universityID",
          "type": "bytes32"
        }
      ],
      "name": "CredentialIssued",
      "type": "event"
    },
    {
      "anonymous": false,
      "inputs": [
        {
          "indexed": true,
          "internalType": "bytes32",
          "name": "studentHash",
          "type": "bytes32"
        }
      ],
      "name": "CredentialRevoked",
      "type": "event"
    },
    {
      "anonymous": false,
      "inputs": [
        {
          "indexed": true,
          "internalType": "bytes32",
          "name": "studentHash",
          "type": "bytes32"
        }
      ],
      "name": "CredentialUpdated",
      "type": "event"
    },
    {
      "inputs": [
        {
          "internalType": "address",
          "name": "universityAddress",
          "type": "address"
        }
      ],
      "name": "addVerifiedUniversity",
      "outputs": [],
      "stateMutability": "nonpayable",
      "type": "function"
    },
    {
      "inputs": [
        {
          "internalType": "bytes32",
          "name": "",
          "type": "bytes32"
        }
      ],
      "name": "credentials",
      "outputs": [
        {
          "internalType": "bytes32",
          "name": "studentHash",
          "type": "bytes32"
        },
        {
          "internalType": "bytes32",
          "name": "universityID",
          "type": "bytes32"
        },
        {
          "internalType": "bytes32",
          "name": "degreeType",
          "type": "bytes32"
        },
        {
          "internalType": "uint256",
          "name": "graduationYear",
          "type": "uint256"
        },
        {
          "internalType": "bytes",
          "name": "zkProof",
          "type": "bytes"
        },
        {
          "internalType": "bytes",
          "name": "issuerSignature",
          "type": "bytes"
        },
        {
          "internalType": "bool",
          "name": "revoked",
          "type": "bool"
        }
      ],
      "stateMutability": "view",
      "type": "function"
    },
    {
      "inputs": [
        {
          "internalType": "bytes32",
          "name": "studentHash",
          "type": "bytes32"
        },
        {
          "internalType": "bytes32",
          "name": "universityID",
          "type": "bytes32"
        },
        {
          "internalType": "bytes32",
          "name": "degreeType",
          "type": "bytes32"
        },
        {
          "internalType": "uint256",
          "name": "graduationYear",
          "type": "uint256"
        },
        {
          "internalType": "bytes",
          "name": "zkProof",
          "type": "bytes"
        },
        {
          "internalType": "bytes",
          "name": "issuerSignature",
          "type": "bytes"
        }
      ],
      "name": "issueCredential",
      "outputs": [],
      "stateMutability": "nonpayable",
      "type": "function"
    },
    {
      "inputs": [
        {
          "internalType": "bytes32",
          "name": "studentHash",
          "type": "bytes32"
        }
      ],
      "name": "revokeCredential",
      "outputs": [],
      "stateMutability": "nonpayable",
      "type": "function"
    },
    {
      "inputs": [
        {
          "internalType": "address",
          "name": "",
          "type": "address"
        }
      ],
      "name": "verifiedUniversities",
      "outputs": [
        {
          "internalType": "bool",
          "name": "",
          "type": "bool"
        }
      ],
      "stateMutability": "view",
      "type": "function"
    },
    {
      "inputs": [
        {
          "internalType": "bytes32",
          "name": "studentHash",
          "type": "bytes32"
        }
      ],
      "name": "verifyCredential",
      "outputs": [
        {
          "internalType": "bool",
          "name": "",
          "type": "bool"
        }
      ],
      "stateMutability": "view",
      "type": "function"
    }
  ],
  "bytecode": "0x608060405234801561001057600080fd5b50610a0b806100206000396000f3fe608060405234801561001057600080fd5b50600436106100625760003560e01c8063299d0348146100675780634dbf87cc146100965780635ab2b465146100b6578063ae3af0ed146100cb578063c42a503b146100de578063ca6eec78146100f1575b600080fd5b61007a61007536600461077d565b610104565b60405161008d979695949392919061087a565b60405180910390f35b6100a96100a436600461077d565b610254565b60405161008d9190610866565b6100c96100c4366004610756565b610413565b005b6100c96100d9366004610795565b61043a565b6100a96100ec366004610756565b610581565b6100c96100ff36600461077d565b610596565b60006020819052908152604090208054600182015460028301546003840154600485018054949593949293919261013a90610984565b80601f016020809104026020016040519081016040528092919081815260200182805461016690610984565b80156101b35780601f10610188576101008083540402835291602001916101b3565b820191906000526020600020905b81548152906001019060200180831161019657829003601f168201915b5050505050908060050180546101c890610984565b80601f01602080910402602001604051908101604052809291908181526020018280546101f490610984565b80156102415780601f1061021657610100808354040283529160200191610241565b820191906000526020600020905b81548152906001019060200180831161022457829003601f168201915b5050506006909301549192505060ff1687565b6000806000808481526020019081526020016000206040518060e0016040529081600082015481526020016001820154815260200160028201548152602001600382015481526020016004820180546102ac90610984565b80601f01602080910402602001604051908101604052809291908181526020018280546102d890610984565b80156103255780601f106102fa57610100808354040283529160200191610325565b820191906000526020600020905b81548152906001019060200180831161030857829003601f168201915b5050505050815260200160058201805461033e90610984565b80601f016020809104026020016040519081016040528092919081815260200182805461036a90610984565b80156103b75780601f1061038c576101008083540402835291602001916103b7565b820191906000526020600020905b81548152906001019060200180831161039a57829003601f168201915b50505091835250506006919091015460ff16151560209091015260c0810151909150156103ff5760405162461bcd60e51b81526004016103f690610905565b60405180910390fd5b61040c8160800151610636565b9392505050565b6001600160a01b03166000908152600160208190526040909120805460ff19169091179055565b3360009081526001602052604090205460ff166104695760405162461bcd60e51b81526004016103f69061095c565b600086815260208190526040902054156104955760405162461bcd60e51b81526004016103f690610931565b6040805160e0810182528781526020808201888152828401888152606084018881526080850188815260a08601889052600060c087018190528d81528086529690962085518155925160018401559051600283015551600382015592518051929392610507926004850192019061063c565b5060a0820151805161052391600584019160209091019061063c565b5060c091909101516006909101805460ff191691151591909117905560405186907fd0cd51382f012897689f4bbad5c6e8086da1e91e9734c3c11e8c98ac0e07abcc90610571908890610871565b60405180910390a2505050505050565b60016020526000908152604090205460ff1681565b3360009081526001602052604090205460ff166105c55760405162461bcd60e51b81526004016103f69061095c565b6000818152602081905260409020546105f05760405162461bcd60e51b81526004016103f6906108ce565b600081815260208190526040808220600601805460ff191660011790555182917f3cc2375f3fc7711ba27361cde93880f578742f9f050acee766bed662d117ba7291a250565b50600190565b82805461064890610984565b90600052602060002090601f01602090048101928261066a57600085556106b0565b82601f1061068357805160ff19168380011785556106b0565b828001600101855582156106b0579182015b828111156106b0578251825591602001919060010190610695565b506106bc9291506106c0565b5090565b5b808211156106bc57600081556001016106c1565b600082601f8301126106e5578081fd5b813567ffffffffffffffff80821115610700576107006109bf565b604051601f8301601f191681016020018281118282101715610724576107246109bf565b60405282815284830160200186101561073b578384fd5b82602086016020830137918201602001929092529392505050565b600060208284031215610767578081fd5b81356001600160a01b038116811461040c578182fd5b60006020828403121561078e578081fd5b5035919050565b60008060008060008060c087890312156107ad578182fd5b86359550602087013594506040870135935060608701359250608087013567ffffffffffffffff808211156107e0578384fd5b6107ec8a838b016106d5565b935060a0890135915080821115610801578283fd5b5061080e89828a016106d5565b9150509295509295509295565b60008151808452815b8181101561084057602081850181015186830182015201610824565b818111156108515782602083870101525b50601f01601f19169290920160200192915050565b901515815260200190565b90815260200190565b600088825287602083015286604083015285606083015260e060808301526108a560e083018661081b565b82810360a08401526108b7818661081b565b91505082151560c083015298975050505050505050565b60208082526019908201527f43726564656e7469616c20646f6573206e6f7420657869737400000000000000604082015260600190565b60208082526012908201527110dc9959195b9d1a585b081c995d9bdad95960721b604082015260600190565b60208082526011908201527043726564656e7469616c2065786973747360781b604082015260600190565b6020808252600e908201526d139bdd08185d5d1a1bdc9a5e995960921b604082015260600190565b60028104600182168061099857607f821691505b602082108114156109b957634e487b7160e01b600052602260045260246000fd5b50919050565b634e487b7160e01b600052604160045260246000fdfea2646970667358221220523d1be2f32cf9183f2f367a23541f5249b23bbd9f438ee5dff141b8537b20ad64736f6c63430008000033",
  "linkReferences": {},
  "deployedLinkReferences": {}
}